:020000040800F2
:1000000010A60120950300089D0300089F03000827
:10001000A1030008A3030008A503000800000000D6
:10002000000000000000000000000000A70300081E
:10003000A903000800000000AB030008E5790000F8
:10004000AF030008AF030008AF030008AF030008C8
:10005000AF030008AF030008AF030008AF030008B8
:10006000AF030008AF030008AF030008C90500088C
:10007000E5050008AF030008C53C0000AF03000819
:10008000AF030008AF030008AF0300082D420000D3
:10009000AF03000855420000AF030008AF0300089B
:1000A000AF030008AF030008AF030008AF03000868
:1000B000AF030008AF030008AF030008AF03000858
:1000C000AF030008AF030008AF030008AF03000848
:1000D000AF030008AF030008811600087D89000007
:1000E000AF030008AF03000800000000AF030008E2
:1000F000AF030008AF030008AF030008AF03000818
:10010000AF030008AF03000859160008AF0300084A
:10011000AF030008AF030008AF03000861890000C7
:10012000AF030008AF030008AF030008AF030008E7
:10013000AF030008AF030008AF030008AF030008D7
:10014000AF030008AF03000800000000000000003B
:10015000AF030008AF030008AF030008AF030008B7
:10016000AF030008AF030008AF030008AF030008A7
:10017000AF030008AF030008AF0300080000000051
:10018000AF030008AF030008AF030008AF03000887
:10019000AF030008AF030008AF030008AF03000877
:1001A000AF030008AF030008AF030008AF03000867
:1001B000AF030008AF030008AF030008AF03000857
:1001C000AF030008AF030008AF030008AF03000847
:1001D000AF030008AF030008AF030008AF03000837
:1001E000AF030008AF030008AF030008AF03000827
:1001F000AF030008AF030008AF030008AF03000817
:10020000AF030008AF030008AF030008AF03000806
:10021000AF030008AF030008AF030008AF030008F6
:10022000AF030008AF030008AF03000800000000A0
:10023000AF030008AF030008AF030008AF030008D6
:10024000AF030008AF030008AF030008AF030008C6
:10025000AF030008AF030008AF030008AF030008B6
:10026000AF030008AF030008AF030008AF030008A6
:10027000AF030008AF030008AF030008AF03000896
:10028000AF030008AF030008AF0300080000000040
:10029000AF030008AF03000800F002F800F06AF8AE
:1002A0000AA090E8000C82448344AAF10107DA45D1
:1002B00001D100F05FF8AFF2090EBAE80F0013F0B9
:1002C000010F18BFFB1A43F001031847D4270000A1
:1002D000342800000A444FF0000C10F8013B13F0E2
:1002E000070408BF10F8014B1D1108BF10F8015B8F
:1002F000641E05D010F8016B641E01F8016BF9D182
:1003000013F0080F1EBF10F8014BAD1C0C1B09D1D8
:100310006D1E58BF01F801CBFAD505E014F8016B4A
:1003200001F8016B6D1EF9D59142D6D370470000DC
:10033000103A24BF78C878C1FAD8520724BF30C811
:1003400030C144BF04680C607047000000230024E3
:1003500000250026103A28BF78C1FBD8520728BFD5
:1003600030C148BF0B6070471FB502F043FA1FBD94
:1003700010B510BD00F0BCF81146FFF7F5FF02F014
:10038000EFF900F0DAF803B4FFF7F2FF03BC00F076
:10039000DDF800000948804709480047FEE7FEE70E
:1003A000FEE7FEE7FEE7FEE7FEE7FEE7FEE7FEE725
:1003B00004480549054A064B7047000059150008D6
:1003C0009902000810A7002010A6012010B60020F6
:1003D00010B60020032A40F2308010F0030C00F029
:1003E000158011F8013BBCF1020F624498BF11F86F
:1003F00001CB00F8013B38BF11F8013BA2F1040228
:1004000098BF00F801CB38BF00F8013B11F003039F
:1004100000F02580083AC0F0088051F8043B083A03
:1004200051F804CBA0E80810F5E7121D5CBF51F8A5
:10043000043B40F8043BAFF30080D20724BF11F81F
:10044000013B11F801CB48BF11F8012B24BF00F884
:10045000013B00F801CB48BF00F8012B704710B5F5
:10046000203AC0F00B80B1E81850203AA0E81850AC
:10047000B1E81850A0E81850BFF4F5AF5FEA027C6D
:1004800024BFB1E81850A0E8185044BF18C918C0DC
:10049000BDE810405FEA827C24BF51F8043B40F87D
:1004A000043B08BF7047D20728BF31F8023B48BF62
:1004B00011F8012B28BF20F8023B48BF00F8012BA0
:1004C000704770477047704710B500F009F8006832
:1004D00010BD10B5044600F003F8046010BD000024
:1004E00000487047B0A6002000487047B0A6002022
:1004F0007546FFF7F9FFAE4605006946534620F002
:100500000700854618B020B5FFF752FFBDE8204030
:100510004FF000064FF000074FF000084FF0000BBF
:1005200021F00701AC46ACE8C009ACE8C009ACE872
:10053000C009ACE8C0098D46704710B50446AFF35A
:1005400000802046BDE81040FFF71DBF014918207C
:10055000ABBEFEE726000200704744F6B96CC0F25D
:10056000000C604743F2AD2CC0F2000C604746F629
:10057000213CC0F2000C604744F62D3CC0F2000C58
:10058000604742F2D11CC0F2000C604742F27D1C71
:10059000C0F2000C604743F2090CC0F2000C604747
:1005A00043F2E97CC0F2000C604748F2B97CC0F22B
:1005B000000C604743F6C15CC0F2000C604742F299
:1005C000913CC0F2000C604710B5054C20688006D5
:1005D00005D500F0DBFCA06840F02000A06010BD55
:1005E0000000024004480168090503D5816841F410
:1005F00000618160704700000000024010B500F00B
:1006000007F800F051F8BDE8104000F0CDB9000047
:100610002348B0F88E0908B1012100E000212148EB
:10062000006880F83E101E49B1F8901909B1012206
:1006300000E0002241F276010A541949B1F89219FA
:1006400009B1012200E0002242F2AE010A5414492D
:10065000B1F8941909B1012200E0002243F2E60149
:100660000A540F49B1F8961909B1012200E000229D
:1006700044F21E110A540A49B1F8981909B101222D
:1006800000E0002245F256110A540549B1F89A19C2
:1006900001B1012100F5C04080F88A1170470000C7
:1006A00000000038000000202DE9F05FBA484FF04C
:1006B000010BB0F83E1AB948012901D180F811BAEE
:1006C000B549B1F8401A012902D1022180F8111A66
:1006D000B149B1F8421A012902D1032180F8111A57
:1006E000AD49B1F8441A012902D1AD4A82F802B0ED
:1006F000A949AC4EB1F8461AA0F8141AA648B0F8A9
:10070000481A3068012901D180F809B04FF000097A
:10071000A149B1F84A1A012901D180F809909E48EF
:10072000B0F84C0A012804D1FFF717FF316881F8AF
:1007300020909948B0F84E0A012801D100F082FEBD
:100740009548B0F8500A012806D1FFF70BFFFFF7D4
:100750000EFF316881F821908F48B0F8520A0128C5
:1007600001D100F0DBFD8C48B0F8540A012807D114
:1007700030684C4680F80C90FFF7FEFE3068C47776
:1007800040F2391E84488246B0F8561A01292FD10A
:10079000326800214FF44873C1EBC10000EB4124E3
:1007A000002002EBC40500BF03F101080AEB430C73
:1007B0001FFA88F305EBC0070AEB4304BCF8E6C751
:1007C0005B1C07F54067B4F8E647401C9BB204EB9E
:1007D0000C4400EE104A0628B7EEC00A87EDC80B9D
:1007E000E2DB491C0629D7DB82F80C9082F81F90C7
:1007F0000AEB4E000EF101075446B0F8E607012857
:1008000007D1316881F80CB0FFF7B6FE316881F886
:100810001F9004EB4700791CB0F8E607012804D1CB
:10082000326802F5C04282F891B1481C04EB4101E4
:10083000B1F8E617012904D1326802F5C04282F806
:100840009191451C04EB4000B0F8E607012801D166
:10085000FFF797FE04EB45006F1CB0F8E607012890
:1008600001D1FFF793FE04EB47007E1CB0F8E607CA
:10087000012802D10220FFF789FE04EB4600751C17
:10088000B0F8E607012802D10420FFF77FFE04EB51
:100890004501681C85B2B1F8E607012802D108209D
:1008A000FFF774FE04EB4501681C85B2B1F8E6075A
:1008B000012802D11020FFF769FE04EB4501681CF6
:1008C00085B2B1F8E607012802D12020FFF75EFECD
:1008D00004EB4501681C85B2B1F8E607012802D196
:1008E0004020FFF753FE04EB4501681C85B2B1F8C8
:1008F000E607012801D1FFF74EFE04EB4501681C15
:1009000085B2B1F8E607012802D10220FFF743FEC5
:1009100004EB4501681C85B2B1F8E607012802D155
:100920000420FFF738FE04EB4501681C85B2B1F8DE
:10093000E607012802D10820FFF72DFE04EB450150
:10094000681C85B2B1F8E607012802D11020FFF734
:1009500022FE04EB4501681C85B2B1F8E6070128C8
:1009600002D12020FFF717FE04EB4500B0F8E607A0
:10097000012802D14020FFF70EFE4FF49670494641
:100980004FF4A57304EB4005421C90B29842A5F8C1
:10099000E617F7D9BDE8F09F00000038007000248A
:1009A0000000002400000020C5480F232DE9F0437B
:1009B0000068C44AC44C00F5C0411646457904F5A8
:1009C000E044A2F8E657C589A6F8E857058AA6F8D4
:1009D000EA57457FA6F8EC57857FA6F8EE5794F8BE
:1009E000125AA6F8F057B84D6D78A6F8F257D4F819
:1009F000504B250CA6F8F4571546A5F8F647047B8E
:100A0000A5F8F84791F8B041A5F8FA47D1F8B441F4
:100A1000240CA5F8FC47B1F8B441A5F8FE47D1F87D
:100A2000B841240CA5F80048B1F8B841A5F802482F
:100A300000245E1CC4EBC40502EB430805EB442311
:100A4000B6B200EBC303751C02EB4607AEB293F8D7
:100A500034C0751CA8F8E6C702EB460C93F8358045
:100A6000AEB2A7F8E687751C93F83680ADB2ACF845
:100A7000E68702EB460793F837806E1C02EB450CC5
:100A8000B5B2A7F8E6876E1C93F8388002EB4507ED
:100A9000ACF8E687B5B2B3F83AC06E1CB6B2A7F8A8
:100AA000E6C702EB4508751C02EB460C9E8FA8F8C2
:100AB000E667ADB293ED240B6E1C02EB4508B7EE72
:100AC000C00B1FFA86F909F10106B6B210EE105AF2
:100AD0002F0CACF8E67710EE105A02EB4907A8F895
:100AE000E657751C93ED260B02EB4608ADB2B7EE48
:100AF000C00B10EE106A4FEA164CA7F8E6C710EECE
:100B0000106A02EB450CA8F8E6676E1C93ED2A0B01
:100B1000B6B2B7EEC00B02EB460810EE105A2F0C1F
:100B2000ACF8E67710EE105AA8F8E657761C93ED6D
:100B30002C0BB3B2641CBCEEC00B02EB43065B1C77
:100B40009BB2062C10EE105AA6F8E657FFF671AFCE
:100B50005C1C91F8825102EB4306A3B25C1CA6F820
:100B6000E65702EB4305A3B291F89261A0F56B60E2
:100B700002EB4304A5F8E6675B1C91F893619BB216
:100B80005F1CA4F8E66702EB4305BBB291F89471D1
:100B90005E1C02EB4304A5F8E677B3B291F88351EB
:100BA00000F5004002EB4306A4F8E6575B1C9BB23D
:100BB00003F1010C02EB43071FFA8CF391F884C197
:100BC0005D1CA6F8E6C702EB4304ABB203F10108D3
:100BD0001FFA88F606F1010C1FFA8CFC02EB4305A4
:100BE000B1F886310CF10108A7F8E637B1F8887141
:100BF0001FFA88F1A4F8E6774C1C02EB4606A4B273
:100C00000023A5F8E63702EB4C0CA6F8E637651C86
:100C100002EB4101ADB2ACF8E63702EB4404A1F8B7
:100C2000E63702EB45016D1CA4F8E637A1F8E6377C
:100C3000A9B24B1C048E02EB410599B24B1CA5F8DE
:100C4000E64702EB410499B2B0F842504B1CA4F8BD
:100C5000E65702EB410499B205884B1CA4F8E6570D
:100C600002EB410499B245884B1CA4F8E65702EB0D
:100C7000410499B285884B1CA4F8E65702EB410465
:100C800099B2C5884B1CA4F8E65702EB410499B20F
:100C9000058B4B1CA4F8E65702EB410499B2438B39
:100CA00002EB4105A4F8E6374B1C848B99B2A5F8FA
:100CB000E64702EB4101C08BA1F8E607BDE8F083EF
:100CC00000000020000000380000002400231A4625
:100CD00001E08354521C8A42FBD37047284870B508
:100CE000274A03680C32264923F4705303602031ED
:100CF0000368244C00254FF47A7643F420530360B4
:100D00001368214843F4A05313600B681F4A43F053
:100D1000EE630B6025612B21A0611D48E2616661D5
:100D2000016020691B49084320610B2000F0E2FCB0
:100D300015491948091DA5622C22154B21631B1D5D
:100D40006063E6621A60A06A1249C1390843A06272
:100D50000C2000F0CFFC0D48C021104C08380A4D83
:100D600003680948B4FBF3F31838021F1D24243D1F
:100D7000036011602C602620BDE8704000F0BABC12
:100D8000000C0258000002402444004008000038D3
:100D90000008024011050300F0030038000E270789
:100DA0002DE9F04100F08CFAFFF798FF0E490E484C
:100DB0000C300A6800230C4CEF2522F001020A6077
:100DC0002434261D4FF47A7706F1040C2360356035
:100DD000CCF80070016841F001010160BDE8F0410C
:100DE000322000F087BC0000000C004070B50023EA
:100DF00005464FF6FF704AF201040CE0EA5C5040F1
:100E00000822C6074FEA500000D06040521E12F080
:100E1000FF02F6D15B1C8B42F0D370BD2DE9F0418F
:100E2000594D2C4695F8D80714F8081F814230D147
:100E30006178204640F2DC57062968D004DC01299D
:100E40000BD0032925D145E04F480F29807B00F1C5
:100E500007001FD010291CD170E00621FFF7C6FF44
:100E6000E279A17901EB022189B2884211D10120F6
:100E700085F8E007A178E0782379627900EB01201A
:100E800002EB03210844401E80B2642873D200F0B4
:100E9000C7F875E0C6B220463146FFF7A7FFA11993
:100EA000A25D497802EB012189B2884268D10F2006
:100EB00085F8E007A178E0782379627900EB0121D9
:100EC00002EB03200844401E80B2642853D200F095
:100ED00061F955E00621FFF789FFE279A17901EB7D
:100EE000022189B288424BD1032085F8E007A1781E
:100EF000E0782379627900EB012102EB03200844BA
:100F0000401E80B2B84236D200F0CEF838E006215A
:100F1000FFF76CFFE279A17901EB022189B28842E7
:100F20002ED1062085F8E007A178E07800EB0120BB
:100F300080B2B8421FD200F0FBF821E0C6B22046D2
:100F40003146FFF753FFA119A25D497802EB012159
:100F500089B2884214D1102085F8E007A178E078A2
:100F60002379627900EB012102EB03200844401E43
:100F700080B2B84202D300F02FF801E000F060F92F
:100F8000BDE8F04100F002B80000003808484FF416
:100F90007A71026922F001020261826842F0200245
:100FA00082604161016941F0010101617047000007
:100FB0000000024007498A6A22F001028A628A68B8
:100FC00042F400628A60C862886A40F00100886268
:100FD000704700000000024070B5104D02204FF431
:100FE0007A7105F57C7485F8D90705F5FB6520460F
:100FF000FFF76CFE287803212070287A803060701B
:101000006878A0702046FFF7F1FE020AE0702271B6
:101010000521BDE870400846FFF7CCBF000000384E
:101020002DE9F0411F4D4FF47A71A5F57C742846E7
:10103000FFF74CFE237B2046627BE17AA67A02EB27
:10104000032290F8D877D21D2F70032490F8E03750
:1010500001EB0621C2F3C7026B7089B2AA70012AA4
:1010600002D0022A06D010E0B0F8E4070424C840F9
:10107000E8700AE0B0F8E42701F108030524CA404B
:10108000EA70B0F8E407D840287121462846FFF7F7
:10109000ADFE611C020A2855A01C6A54BDE8F0414F
:1010A000FFF788BFF00300382DE9F0411F4C4FF4E3
:1010B0007A71A4F57C752046FFF708FE6A7B294605
:1010C0002B7BE87AAE7A02EB032291F8D857FF2304
:1010D000257000EB062080B28618032503EA420340
:1010E00091F8E027761E6270B6B2A3700DE001EBB6
:1010F00040036A1C92B2B3F8E6773F0A675593F84B
:10110000E657531CA5549DB2401CB042EFDD294662
:101110002046FFF76BFE691C020A605588B2411C2D
:101120002254BDE8F04188B2FFF744BFF003003815
:1011300070B5174D4FF47A71A5F57A742846FFF70C
:10114000C5FDA278A4F10801E078237900EB022024
:1011500080B21A0201EB400301EB4000A3F8E6273E
:10116000B0F8E61762791144A0F8E6170020215C78
:101170002954401C0628FADB06212846FFF736FED4
:10118000A871010AE9710820BDE87040FFF712BF9D
:10119000F00300382DE9F047284D4FF47A71A5F59A
:1011A0007A742846FFF792FD94F802C0A4F1080370
:1011B00027790020E278667902EB0C2CA17906EB06
:1011C0000727B3F8E4271FFA8CF63744A7F1010785
:1011D0001FFA87FC012902D0022902D007E0E0793A
:1011E00003E0217AE07900EB0120B04080B24FF0BB
:1011F000010900273946B14205DB614503DC09FAE4
:1012000001F84744BFB2491C1029F4DBBA43384007
:101210000243A3F8E4270020215C2954401C06283F
:10122000FADB06212846FFF7E1FDA871010AE97102
:101230000820BDE8F047FFF7BDBE0000F00300380E
:101240002DE9F0411D4D4FF47A71A5F57A742846C9
:10125000FFF73CFDA2780720E178A4F10807267982
:10126000637901EB022189B203EB06220A44521E84
:1012700092B20FE0235C401C07EB410680B21B02D8
:10128000A6F8E63714F800C0401C80B2491C63443D
:10129000A6F8E6379142EDDD0020215C2954401C80
:1012A0000628FADB06212846FFF7A0FDA871010AEF
:1012B000E9710820BDE8F041FFF77CBEF00300387B
:1012C00070B54FF47A7412482146FFF7FFFC1148BD
:1012D0002146FFF7FBFC104B4FF4E1300C49002294
:1012E000B3FBF0F308390124C1E9000381F8E027DA
:1012F00040F2DC5381F8D8471046A1F8E427441C9B
:1013000001EB4005A0B29842A5F8E627F7D370BDDF
:1013100008000038F003003840420F00474A00231D
:10132000F0B447494FF4FA70D2F8004003EB43059C
:10133000002204EB051500BF00F1010C01EB400792
:101340001FFA8CF005EBC20601EB400CB7F8E6770C
:10135000401C06F5D846BCF8E6C7521C80B20CEB20
:10136000074700EE107A062AB7EEC00A86ED460B54
:10137000E2DB5B1C072BD9DB5FF0000505EB850288
:1013800002EBC503002204EBC30300BF00F1010C14
:1013900001EB40061FFA8CF003EBC20701EB400C97
:1013A000B6F8E667401C07F5D847BCF8E6C7521CFC
:1013B00080B20CEB064600EE106A062AB7EEC00AB1
:1013C00087ED9A0BE2DB0022461C01EB400CB0B229
:1013D00003EBC207BCF8E66701EB400C401C07F5C5
:1013E000D847BCF8E6C7521C80B20CEB064600EEAC
:1013F000106A062AB7EEC00A87EDA80BE4DB421C90
:1014000001EB400690B203F5D843B6F8E62701EBAE
:101410004006401C6D1CB6F8E66780B2072D06EB4F
:10142000024200EE102AB7EEC00A83EDA60BA5DB40
:10143000002084F82100F0BCFFF799B800000020DC
:101440000000003842490022F0B542484FF4C8730A
:101450000D685C1C00EB4306A3B2C2EBC201B6F8F8
:10146000E64700EB43065B1C9BB2B6F8E66701EB70
:101470004221521C06EB044400EE104A03F101061F
:1014800000EB4304B7EEC00AB3B205EBC10100EBB9
:10149000430601F5406103F1010381EDDC0BB4F873
:1014A000E6479BB2B6F8E66703F10107062A06EBAA
:1014B000044400EE104A00EB4306BBB2B7EEC00A8C
:1014C00000EB430703F101039BB203F1010C81ED33
:1014D000DE0BB6F8E647B7F8E6674FEA04473E4446
:1014E00000EE106A00EB43041FFA8CF3B7EEC00A5B
:1014F00000EB430603F101039BB281EDE00BB4F86E
:10150000E647B6F8E67700EB43064FEA044C67443B
:1015100000EE107A03F10104A3B2B7EEC00A00EBAB
:10152000430703F101039BB281EDFA0BB6F8E647DE
:10153000B7F8E66706EB044400EE104AB7EEC00ABF
:1015400081EDFC0B85DB002085F82000F0BD00005C
:1015500000000020000000383548F0B53449036829
:101560007839344A43F470030360086840F010008F
:101570000860106800F00F00072804D2106820F0FF
:101580000F00C01D10602C4900202B4C10340B683C
:101590002A4D43F001030B6020600B682B400B6069
:1015A000136803F00F03072B04D9136823F00F030C
:1015B000DB1D1360204C224A1834224B261D371D98
:1015C00020601D4C204D28343060261D3860371DAA
:1015D00023603B1D35601C1D3A60251D2E1D1860C3
:1015E000331D22602860326018600B684FF0B042F3
:1015F000114C23F480230B6060342060D2F8E400A7
:10160000124940F48040C2F8E40008686FF30F000C
:10161000B0F1005F03D20E490120C1F8080143F286
:10162000D2000C49024B4A03803B08601A60F0BDAF
:1016300088ED00E000200052004402587FEDF6EAF9
:1016400080020101000202020000FF010010005CA4
:10165000008000510040005210B5084C2068C007BF
:101660000BD006481038016821F001010160FFF736
:10167000D5FB206820F00100206010BD100C004058
:101680000C480068C00613D50B4800680B4801469B
:10169000007A91F8D817884204D10948016841F0CE
:1016A000010101600348001D016841F01001016063
:1016B000704700001C4400402448004000000038EF
:1016C000000C004003B401984100009850EAC1208A
:1016D00018BF04204A0D18BF40F0010040F2FF720D
:1016E000B2EB515F08BF40F00200012808BF05209F
:1016F00002B07047002809DB410900F01F02890091
:10170000012001F1E0219040C1F800017047000084
:1017100010B529499FED261B2DED020B84B00598CD
:1017200020F000408842D8BF9DED040B2DDD2349F9
:10173000884209D1049840B94FF00100FEF7C9FE74
:1017400000F0DEFF06B010BD05DB9DED040B30EEB2
:10175000000B06B010BD68469DED040B00F038FD8F
:1017600010F0030004BF9DED021B9DED000B0CD09B
:1017700001280ED09DED021B9DED000B022810D01C
:10178000012000F055FF06B010BD00F0A9FE06B024
:1017900010BD9DED021B9DED000B012000F048FFE8
:1017A00001E000F09DFE06B0B1EE400B10BD000060
:1017B0000000000000000000FB21E93F0000F07F76
:1017C0002DE9F04D2DED040B2DED0A8B9AB0DDE9DE
:1017D0002550279CDDF890A025F0004624F0004815
:1017E000BAF1000F14BF0121002101EB4502F849B5
:1017F00053184A1093422AD3002814BF0123002310
:1018000003EB44030B44F3498B4220D358EA000115
:101810009FEDF19B72D0DFF8C8B35D4503D1BAF1FB
:10182000000F05D184E0BAF1000F08BF002100D0FD
:10183000012101EB450111F5001F08D8002814BF54
:101840000121002101EB440111F5001F0BD99DED91
:10185000261B9DED240B1AB0BDEC0A8B04B0BDE82D
:10186000F04D00F049BF0027002DBCBFDD49884581
:1018700021DADD498845A8BF02271CDAC3451ADCF6
:10188000DA4901EB2851142908DDC1F1340220FAAC
:1018900002F101FA02F282420DD108E058B9C1F119
:1018A000140228FA02F101FA02F2424503D101F0D2
:1018B0000101C1F1020756EA0A0120D1002C1EDA0B
:1018C000002D18BF022F01D0012F0AD00220FEF7F1
:1018D00000FE1AB0BDEC0A8B04B0BDE8F04D00F07C
:1018E000FBBE0220FEF7F5FD00F0F6FEB1EE400B68
:1018F0001AB0BDEC0A8B04B0BDE8F08D18E09FED86
:10190000BCAB9FEDBD8B00287DD1B64880451CD176
:1019100005F1804010F5801008BFBAF1000F07D024
:10192000B34508DC002CA8BF9DED260BE0DA07E0EC
:10193000B0EE490BDCE7002CB8BF9DED260BD5DBE4
:10194000AF48784490ED000BD2E7D84548D1002C41
:1019500043DA2EB186423AD1BAF1000F3DD126E0EA
:10196000BAF1000F13D00220FEF7B3FD00F0D4FE51
:101970008DED020B9DED240B8DED000B10EE900A0A
:10198000039961F31E0003909DED020BB0E78DED0E
:1019900002AB9DED240B1AEE901A10EE900A8DED1D
:1019A000000B61F31E0003909DED020BA0E78DED8F
:1019B000028B9DED240B18EE901A10EE900A8DED1F
:1019C000000B61F31E0003909DED020B90E704DA1B
:1019D0009DED241B89EE010B8AE79DED240B87E723
:1019E00086421ADAB4F1804F04BF9DED240B20EE3D
:1019F000000B3FF47DAFA4F10050B0F1FF500CD1CB
:101A0000002D0ADB00E008E09DED240B51EC100BEB
:101A100000F0B2FE41EC100B6AE79DED240B51EC97
:101A2000100B00F091FEBAF1000FCDE90E0140D18C
:101A30009FED750B46B3A6F1E040B0F17F600ED08C
:101A40005E4536D1002D00DA97B3022F0CBF01207E
:101A50004FF0FF3000EE100AB8EEC00B48E7002D43
:101A600001DD002C0DDA002D01DD002C1DDB002D29
:101A700014DA002C12DB012F08BF9FED650B3FF439
:101A800037AFB0EE4A0B33E7022F18BF002D0CD052
:101A9000012F0AD1002DFFF62BAF06E0002DB8BFB5
:101AA000002C06DA012F3FF423AFB0EE480B1FE7FE
:101AB00019E0012000EBE57050EA070113D0791E10
:101AC000B0EE498B084308BF9FED538B5448002567
:101AD00080457ADD53495448884514DDB0420DDB1A
:101AE000002C19DB2CE00120FEF7F3FC1AB0BDEC52
:101AF0000A8B04B0BDE8F04D00F002BEB34502DC35
:101B0000002C09DC1CE0864202DA002C18DA03E023
:101B10005E4528DD002C13DD0220FEF7DAFC00F024
:101B2000FBFD8DED020B28EE0A0B8DED000B10EE88
:101B3000900A039961F31E0003909DED020BD7E616
:101B40000220FEF7C6FC00F0F3FD10EE901A18EE2E
:101B5000900A8DED020B8DED008B61F31E0003905A
:101B60009DED020BC4E69DED0E0B9FED313B30EE7B
:101B7000490B8DED040B20EE002B9DED041B9FED1A
:101B80002E0B01EE430B9DED043B9FED2D1B03EE51
:101B9000401B9DED040B9FED2E3B22EE012B9FED94
:101BA0002A1B20EE011B20EE030B9FED2B3B02EEC8
:101BB000430B31EE002B8DED022B02959DED022B98
:101BC00032EE411B30EE411B21E149E000000000F4
:101BD000FFFF1F00FFFF0F00000000000000F03FAC
:101BE0000000F03F0000F07F0000404301FCFFFFD9
:101BF000000000000000F07F000000000000000076
:101C000062100000000000000000000000000080E2
:101C1000000000000000F0FF000000000000F0BF26
:101C20000000E0410000F043FFFFEF3F0000000034
:101C3000000000000000D03F555555555555D53F83
:101C4000000000000000E03F000000604715F73F83
:101C500044DF5DF80BAE543EFE822B654715F73F1F
:101C60000020B6F5801F0BDA9DED0E0B9FEDEC1BEF
:101C70006FF0340020EE010B10EE906A8DED0E0B2C
:101C8000E94A00EB2650C6F31301A0F2FF3741F0FA
:101C90007F6040F040509142D8BF002408DDE34A05
:101CA0008A42C8BF012403DC0024A0F580107F1CF9
:101CB000DF49794401EBC4010F9091ED001B9DEDCC
:101CC0000E2B9DED0E0BDB4931EE023B30EE410B4E
:101CD00089EE032B20EE02AB8DED02AB7944029529
:101CE00091ED003B4FF0005141EA600000EB844071
:101CF0008DED043B00F5002005909DED043B9DED2E
:101D0000044B2AEE0ACB33EE411B9DED0E3BCA4835
:101D1000062133EE411B9DED023B03EE440B03EE27
:101D2000410B20EE02BBB0EE4C0B784400F048FCB7
:101D30002CEE0C1B20EE010B9DED021B31EE0A1B5D
:101D40000BEE010B9DED021B21EE011B9FEDBC2B49
:101D500031EE023B33EE003B8DED043B04959DEDEF
:101D6000043B33EE422B32EE411B30EE412B9DED16
:101D7000020B9DED041B20EE011B9DED040B2BEED1
:101D8000000B02EE0A0B31EE002B8DED022B0295BB
:101D90009DED022B32EE411B30EE410B9DED021BFF
:101DA0009FEDA92B21EE021B9DED022B9FEDA83B81
:101DB00022EE032B9FEDA83BA94800EE032B7844AD
:101DC00000EBC40090ED000BA64832EE000B02EED3
:101DD000107AB8EEC22B8DED042B31EE003B784427
:101DE00000EBC4009DED044B90ED002B33EE023B65
:101DF00033EE043B8DED023B02959DED023B33EE4D
:101E0000443B33EE422B32EE411B30EE411B9DED45
:101E1000260B954A8DED000B00959DED260B9DED53
:101E2000002B30EE420B9DED022B20EE020B9DEDC0
:101E3000262B02EE010B9DED001B9DED022B21EEEA
:101E4000021B8DED021B30EE011B11EE900A11EE0C
:101E5000101A8DED001B904224DB821A11430ED123
:101E60009FED831B9DED002B9DED023B30EE011B92
:101E700032EE432BB4EEC21BF1EE10FA26DD022047
:101E8000FEF727FB00F048FC10EE901A18EE900ABF
:101E90008DED020B8DED008B61F31E0003909DED27
:101EA000020B25E5744B20F000429A420ED3734A90
:101EB000024411437FF444AE9DED022B31EE421BF0
:101EC000B4EEC01BF1EE10FABFF63AAE20F00041BE
:101ED0006B4A6C4B002402EB21529942D8BF9DED16
:101EE000021B27DD511C4FF4801222FA01F101443C
:101EF000654BC1F30A527B44A2F2FF3293ED001B03
:101F0000624B8DED041BD34021EA0303C1F313019F
:101F100041F48011C2F1140221FA02F40593002861
:101F2000B8BF64429DED021B9DED042B31EE421BB8
:101F30008DED021B30EE011B8DED041B04959DED14
:101F4000041B9FED532B9DED023B21EE021B9DEDEB
:101F5000042B32EE432B30EE420B9FED4F2B20EE45
:101F6000020B9DED042B9FED4E3B4F48052102EEE9
:101F7000030B31EE002B8DED002B32EE411B30EECA
:101F800041AB9DED000B20EE000B8DED040B784472
:101F900000F016FB9DED001B9DED042B02EE401B97
:101FA0008DED021B9DED000B20EE010B9FED402BF4
:101FB00031EE422B80EE021B9DED002BB0EE4A0B62
:101FC00002EE0A0B31EE400B9DED001B30EE410B93
:101FD00039EE400B10EE900A8DED000B00EB045033
:101FE00001150029C8BF019013DC224651EC100BEB
:101FF00000F037FCFFF766FB042808BF00F098FBF1
:1020000022469DED000B51EC100B00F02AFCCDE9AF
:1020100000019DED000B28EE000B69E400000000BC
:1020200000000000000040438E9803007AB60B00C9
:102030003A0C0000C80C0000F20B00000000000089
:102040000000000000000840000000E009C7EE3F6B
:10205000F5015B14E02F3EBEFD033ADC09C7EE3FFD
:102060004E0B00001E0B000000009040000000001E
:10207000FE822B654715973C00CC904000346F3FA3
:1020800001FCFFFF0000E03FAE0A0000FFFF0F0071
:1020900000000000432EE63FEF39FAFE422EE63FF5
:1020A000396CA80C615C20BEBE0900000000000075
:1020B000000000000000004010B529499FED261BDC
:1020C0002DED020B84B0059820F000408842DCBF63
:1020D00000209DED040B2EDD2249884209D1049891
:1020E00040B94FF00100FEF7F4F900F009FB06B02B
:1020F00010BD05DB9DED040B30EE000B06B010BDEE
:1021000068469DED040B00F063F810F003000DD05D
:10211000012814D09DED021B9DED000B022816D066
:1021200000F0DEF906B0B1EE400B10BD9DED021BD4
:102130009DED000B012000F07BFA06B010BD9DED77
:10214000021B9DED000B00F0CBF906B010BD012085
:1021500000F06EFAE6E7000000000000000000005A
:10216000FB21E93F0000F07F00B52DED028BB1EEC1
:10217000C08B83B018EE100A18EE901A8DED008B0C
:10218000002818BF0120084320F00040C0F17F6004
:1021900000F1E040C00F14D010EE101A10EE900ABB
:1021A0008DED000B002918BF0121084320F00040ED
:1021B000C0F17F6000F1E040C00F04BF0120FEF7D6
:1021C00088F9B0EE480B03B0BDEC028B00BD0000F7
:1021D0002DE9F14F04462DED020B2DED048B94B04B
:1021E0009FED9D0B80ED020B199E9D4826F000454A
:1021F00085420ADC9DED180B002084ED000B14B025
:10220000BDEC048B03B0BDE8F08F96489FED969B24
:102210009FED978BA84225DD97489FED991B9FED79
:102220009A2B9DED180B002E0DDD30EE490B8542EB
:1022300012BF30EE480B30EE410B30EE420B84ED16
:10224000000B0120DBE730EE090B854212BF30EEB8
:10225000080B30EE010B30EE020B84ED000B4FF05B
:10226000FF30CCE78A48A84253DB9DED180B51ECB8
:10227000100B00F069FA41EC100BB0EE401B9FED23
:10228000862B9FED870B290DDFF81CC201EE020B98
:102290000120FDEEC00B10EE903A00EE903AB8EE41
:1022A000E02BB0EE410B02EE490B22EE081BFC4482
:1022B000032830EE411B84ED001B1DD011EE902A47
:1022C00000EB4015113DC2F30A528A1A954213DA07
:1022D0000CEB0012B0EE403B92ED000B401C20EEE8
:1022E000021B33EE410B33EE403B33EE411B92EDCC
:1022F000023B12EE031BDBE7002EA8BF1846BFF619
:102300007EAF94ED000B5842B1EE400B84ED000B14
:1023100075E7C6F3130040F4801EC6F30A50A0F21E
:10232000F530471100F01F05C5F12000DDF860B061
:10233000139000200890099005200DF1080C5B49CE
:10234000002D07EB0002794408BF51F8221009D094
:1023500051F8223001EB8201AB404A68139922FA0E
:1023600001F11943A1FB0E26A1FB0B131A449A425B
:1023700034BF0123002303EB06080CEB8003D3E9F1
:1023800001A60E448E4234BF0121002192448A44AA
:1023900011B1924502D903E0924501D2012100E03A
:1023A0000021C3E901A641444CF82010011EA0F110
:1023B0000100C4DC04989DED050A00F10050810F76
:1023C00004989FED3B4B800001EE100ADDED060AFC
:1023D0009DED072AB8EEC13BB8EE401BB8EE600B8E
:1023E000B8EE422B002021EE041B9FED334B20EE74
:1023F000040B9FED334B22EE042B30EE024B34EEF8
:10240000014B34EE034B8DED004B00909DED004BE6
:10241000199834EE433B10F0004F33EE411B31EE80
:10242000400B32EE401B9DED000B9FED272B20EE65
:10243000020B9FED272B01EE020B9DED001B9FED84
:10244000262B01EE020B1CBF4942B1EE400B84ED7E
:10245000000B0846D3E6000000000000000000006A
:10246000FB21E93F7CD9024000004054FB21F93FA9
:102470003163621A61B4D03DFB21F93F00000000D6
:102480000000601A61B4D03D7370032E8A19A33B1B
:10249000FB2139410000000083C8C96D305FE43F73
:1024A000000000000000E03FFE060000960600006D
:1024B000000000000000103E000000000000103C82
:1024C000000000000000103A3326A611460B113C14
:1024D000182D4454FB21F93D00000054FB21F93D27
:1024E00010B52DED040B2DED068B82B0B0EE41AB97
:1024F00009989FED299B20F00044B4F1795F0FDA31
:102500009DED080BBDEEC00B10EE100A002801BFB8
:10251000B0EE490B02B0BDEC068B04B008BF10BD95
:102520009DED080B1E48062120EE008BB0EE480BF7
:10253000784400F045F820EE080B9DED081B1C4880
:10254000844228EE000B01EE4A0B9FED171B28EE8C
:10255000011BBCBF31EE400B39EE400B16DB1548BA
:10256000A042BCBF9FED142B8DED002B06DBA4F524
:1025700000100190002000909DED002B31EE421BD9
:1025800039EE422B31EE400B32EE400B02B0BDEC87
:10259000068B04B010BD0000000000000000F03FFA
:1025A0004404000000000000000000000000E03FC4
:1025B0003333D33F0000E93F000000000000D23F6A
:1025C000491E00EBC102B0EE401B92ED000B31F052
:1025D00006020DD0491E00EBC102B0EE403B92ED69
:1025E000002B31F00602B0EE420B03EE010BF1D1ED
:1025F000022914D004290AD0062918BF704790ED8B
:102600000A2B00EE012B90ED080B02EE010B90ED72
:10261000062B00EE012B90ED040B02EE010B90ED6A
:10262000022B00EE012B90ED000B02EE010B704728
:1026300031B504462DED040B2DED068BB0EE419B1C
:1026400007989DED060B20F00040B0F1795F0DDAA0
:1026500051EC100BFFF736F8042808BF00F068F8BB
:102660009DED060BBDEC068B05B030BD20EE008B5A
:102670001348052128EE00ABB0EE480B7844FFF775
:102680009FFF9FED111B8CB19FED112B29EE022BAB
:102690000AEE402B9DED060B18EE029B0AEE419BC5
:1026A00030EE490BBDEC068B05B030BD08EE001BCB
:1026B0009DED060B0AEE010BBDEC068B05B030BD9F
:1026C000F803000000000000495555555555C5BF99
:1026D000000000000000E03F9FED031B9FED042B76
:1026E00081EE020B70470000000000000000F03F88
:1026F000000000000000000030EE010B70470000F9
:102700009FED031B81EE010B7047000000000000ED
:1027100000000000000000009FED030B20EE000B06
:102720007047000000000000000000000000007082
:102730009FED030B20EE000B70470000000000002F
:10274000000000000000001082B0CDE9000121F07F
:10275000004001909DED000B02B051EC100B704752
:10276000FDF71EFF4FF47A74FDF71FFFFDF722FF00
:102770002046FDF724FFF7E700B541EC100B2DEDE7
:10278000028B83B0B1EEC08B18EE100A18EE901ACF
:102790008DED008B002818BF0120084320F0004079
:1027A000C0F17F6000F1E040C00F14D010EE101AAD
:1027B00010EE900A8DED000B002918BF012108438F
:1027C00020F00040C0F17F6000F1E040C00F04BF86
:1027D0000120FDF77EFE51EC180B03B0BDEC028B1F
:1027E00000BD000002494FF0000000F008B800BF33
:1027F0000000F87F4FF04070E1EE100A70470CF0D7
:102800000F03092B08BF082000F059800A2B0BD0BA
:10281000082B18BF704708BF1CF0400F0AD04FF0BC
:1028200000004FF0000170471CF0400F18BF4FF040
:10283000004070471CF0100F08D020F0704300F0EB
:102840007F4242EAD3014FEA4370704700F0604094
:1028500021F07F4242EA000201F07F4040EA7270BC
:1028600070474FF0FF0C4CF4E06C1CEA11531CBF96
:102870009CEA030C9445C2BFDA4201EB0251704757
:10288000002B0DD0BCF1000F0FD0002A01F0004149
:10289000A4BF41F0E04141F07F614FF0000070477C
:1028A00001F000414FF00000704750EA01334FF053
:1028B0009B0C18BF4CF0806C7FF494AF70471CF4F5
:1028C000801F11D01CF4E02F03D06FEACC314900F7
:1028D00070474FF04050EFF3008222F0704242EA1E
:1028E000000282F3008870474FF00000704700003C
:1028F000000000000000F03F000000000000F83F72
:1029000000000000000000000000004003B8E23FAB
:10291000000000000000000006D0CF43EBFD4C3E5D
:10292000033333333333E33FFFAB6FDBB66DDB3F52
:102930004D268F515555D53F01411DA96074D13F9A
:1029400065DBC9934A86CD3FEF4E454A287ECA3F94
:102950003E5555555555C53F93BDBE166CC166BF16
:102960002CDE25AF6A56113FF16BD2C541BDBBBE0F
:10297000D0A4BE726937663E4C5555555555A53F96
:102980007751C1166CC156BF9015CB19A001FA3E04
:10299000AD529C804F7E92BEC4B1B4BD9EEE213E2E
:1029A000D43888BEE9FAA8BD00000000000000008D
:1029B00000004054FB21F93F3163621A61B4D03DFD
:1029C0000000601A61B4D03D7370032E8A19A33BD6
:1029D0000000002E8A19A33BC14920259A837B3928
:1029E00000000000000000006E83F9A22915444E8B
:1029F000D15727FCC0DD34F5999562DB4190433C0B
:102A0000AB6351FE61C5BBDE3A6E24B7E0D24D42E6
:102A1000EA2E49061C92D1091CEB1DFE3EA729B1E6
:102A2000F53582E88444BB2E26709CE9417E5FB474
:102A300039D69139F43953838B5F849C3B28F9BD97
:102A4000FF97F81F0F9805DE8B112FEF1F6D0A5AA5
:102A5000CF7E366DB709CB27663F464F2DEA5F9E86
:102A6000C7BA27757BF1E5EBF739073DEA92528A41
:102A7000B15FFB6B085D8D1FA6F810111111813F2E
:102A8000D561C119A0012ABF7DFEB157E31DC73E24
:102A9000EB9C2B8AE6E55ABE7CD5CF5A3AD9E53D68
:102AA000002B000800000020080000003003000890
:102AB000082B00080000002490140700D40200082E
:102AC0004039000800000030A04E0000D402000889
:102AD000E03900080000000098DD00003003000825
:102AE0007817010800000038A0130000D402000885
:102AF000082B00080800002008A601004C0300086D
:102B0000080000200000000001FF01FF01FF01FF9D
:102B100001FF01FF01FF01FF01FF01FF01FF01FFB5
:102B200001FF01FF01FF01FF01FF01FF01FF01FFA5
:102B300001FF01FF01FF01FF01FF01FF01FF01FF95
:102B400001FF01FF01FF01FF01FF01FF01FF01FF85
:1039300001FF01FF01FF01FF01FF01FF01FF01ABDB
:1039400001FF01FF01FF01FF01FF01FF01FF01FF77
:1039500001FF01FF01FF01FF01FF01FF01FF01FF67
:1039600001FF01FF01FF01FF01FF01FF01FF01FF57
:1039700001FF01FF01FF01FF01FF01FF01FF01FF47
:1039800001FF01FF01FF01FF01FF01FF01FF01FF37
:1039900001FF01FF01FF01FF01FF01FF01FF01FF27
:1039A00001FF01FF01FF01FF01FF01FF01FF01FF17
:1039B00001FF01FF01FF01FF01FF01FF01FF01FF07
:1039C00001FF01FF01FF01FF01FF01FF01FF01FFF7
:1039D00001FF01FF01FF01FF01FF01FF01EE0000F8
:1039E00040F2FD5CC0F6000C604740F6A15CC0F6FA
:1039F000000C604740F2D53CC0F6000C604741F235
:103A0000117CC0F6000C604742F2B90CC0F6000C05
:103A1000604740F25F4CC0F6000C604741F2C17C49
:103A2000C0F6000C604742F2691CC0F6000C60470B
:103A30006248002130B50B46D0F80020C3EBC3002C
:103A400000EB432002EBC00090F83E00012811D1AA
:103A500003EB830002EB001000F5C04080F89016E5
:103A6000C0F88C1680F8C018C0F8BC1880F8F01A9E
:103A7000C0F8EC1A5B1C062BE0DB02F5C04090F8A6
:103A80008A31012B0BD180F87018C0F86C1880F8BF
:103A9000A01AC0F89C1A80F8D01CC0F8CC1C0124D5
:103AA0000023C0F8B41100BF03EB430505EBC305C9
:103AB00002EBC50505F5C04595F8C85205B90024C7
:103AC0005B1C0B2BF0DB1CB141F00102C0F8B421F0
:103AD00090F890265AB190F8C02842B190F8F02A98
:103AE0002AB1D0F8B42142F48072C0F8B42190F821
:103AF000E0265AB190F8102942B190F8402B2AB133
:103B0000D0F8B42142F40072C0F8B42190F8302704
:103B10005AB190F8602942B190F8902B2AB1D0F8B0
:103B2000B42142F48062C0F8B42190F880275AB1E1
:103B300090F8B02942B190F8E02B2AB1D0F8B42126
:103B400042F40062C0F8B42190F8D0275AB190F83E
:103B5000002A42B190F8302C2AB1D0F8B42142F4B6
:103B60008052C0F8B42190F820285AB190F8502A19
:103B700042B190F8802C2AB1D0F8B42142F400521E
:103B8000C0F8B42190F870285AB190F8A02A42B138
:103B900090F8D02C2AB1D0F8B42142F48042C0F879
:103BA000B421D0F8B42102B1012180F8B011D0F8CD
:103BB000B8111143C0F8B81130BD0000000000205A
:103BC0001B49F0B401240A6800204FF4FA7503463B
:103BD00000EB400101EBC00102EBC10101F5C04166
:103BE000D1F8C462AE4204D3C1F8C45281F8C842CD
:103BF00001E081F8C832401C0B28E9DB5FF00000CF
:103C000000EB800102EB011101F5C041D1F88C6697
:103C1000AE4204D3C1F88C5681F8904601E081F899
:103C20009036401C1528EBDBF0BCFFF701BF00000D
:103C30000000002010B501F083FC00F077F801F0DF
:103C4000A3FC00F009F80348816921F001018161BA
:103C500010BD000000A000402F492F4B10B52033AD
:103C60000A682E4822F00F020A600C682C4A44F0C1
:103C70000A040C60196841F099011960836940F6E3
:103C8000313143F00303836183693F2443F4864366
:103C90008361C261C160C0F880400222214940F2C4
:103CA0002223096801F5CC7101F5C0410C8844F468
:103CB000A814C0F884404C8844F43024C0F8C040B4
:103CC000C0F8C820C0F8BC30174A8B88C0F8AC30A8
:103CD000C98841F42C11C0F8A010426501220021CE
:103CE000D0F8E03002FA01F42343C0F8E030491C78
:103CF0000B29F5DB426D4FF07F51032342F07F52D9
:103D000042658165C365132008F0CDFBBDE8104016
:103D1000152008F0C8BB0000000C025800A00040AD
:103D2000030B0402000000200002080065482DE992
:103D3000F043006800F10C04814600F1180C00F11A
:103D4000240800F1300100F13C0200F1480300F1C9
:103D5000540500F5C047603000F5C0464FF40070D0
:103D6000A7F8C20109F16C0004F5C04400F5C04792
:103D700040F201200CF5C04CA4F8C20109F1780012
:103D800000F5C04440F2022008F5C048ACF8C2017A
:103D900009F1840000F5C04C40F2032001F5C04158
:103DA000A8F8C20109F1900000F5C0484FF4017075
:103DB000A1F8C20109F19C0002F5C04200F5C04122
:103DC00040F2052003F5C043A2F8C20109F1A800A2
:103DD00000F5C04240F2062005F5C045A3F8C20137
:103DE00009F1B40000F5C0434FF40470A5F8C20116
:103DF00009F1C00000F5C04540F21120A6F8C2014B
:103E000009F1CC0000F5C04640F21220A7F8C2012B
:103E100009F1D80000F5C04740F21320A4F8C20110
:103E20004FF40574ACF8C241641CA8F8C24140F2DA
:103E30001628A1F8C281072409F1E40040F2F12814
:103E400009F1F00C4FF43C71A2F8C211A3F8C28141
:103E5000891CA5F8C2114A1C00F5C040A6F8C22171
:103E60008B1CA7F8C2310CF5C04C40F2F528091D97
:103E7000A0F8C281134F01265FF00000ACF8C21118
:103E80004FF0605C00EB40013A6885B245F080433A
:103E900002EB8101A1F5F25101F5004102F5C042AA
:103EA0000E704C708D804D884CEA05452B438B601D
:103EB000D2F8A01141F82030401C1528E2DBBDE803
:103EC000F0830000000000205B4900EB40032DE977
:103ED000F043D1F8009000EB80045B0009F5C0428C
:103EE00009EB041404F5C041D2F8A85155F8236039
:103EF0000425C1F8C06605EB8305D2F8A8717D5989
:103F00000827C1F8C45607EB8307D2F8A8C15CF8AC
:103F100007C00C27C1F8C8C607EB8307D2F8A8C1B1
:103F20005CF807C01027C1F8CCC607EB8307D2F8AE
:103F3000A8C15CF807704FF0140CC1F8D0760CEBF8
:103F40008303D2F8A8C107275CF80330B0FBF7FC65
:103F5000C1F8D436C6F38A4307FB1C074FEAD67C68
:103F600081F8A0C6C6F3407081F8A106C1F8A43656
:103F7000EE0F81F8A866C5F3056081F8A906C5F3C0
:103F8000405381F8AA36C5F3005681F8AB662B0C76
:103F9000C5F3034081F8AC06A1F8AE365FF000032C
:103FA00004EB830000F5D66000F5C0405B1C042BD9
:103FB000856905704FEA152646704FEA154C80F862
:103FC00002C04FEA156880F80380E9DB052F4FF047
:103FD000010310D891F8B006012814D1C7EBC7002F
:103FE00000EB472209EBC20090F8302080F8423005
:103FF00080F8312007E0062F05D191F8B00601289E
:1040000001D182F88E3104F5C040034605460022F6
:10401000C1F88C26D0F8980604F5C044D3F89C3635
:10402000401CC5F8980643F10003C4F89C3681F89B
:104030008826BDE8F083000000000020554900EB11
:1040400080032DE9F043D1F8009000EB400509F51D
:10405000C0426D0009EB0313D2F8A84103F5C0413B
:1040600054F825600424C1F8C06604EB8504D2F836
:10407000A8713C590827C1F8C44607EB8507D2F858
:10408000A8C15CF807C00C27C1F8C8C607EB8507B4
:10409000D2F8A8C15CF807C01027C1F8CCC607EB5E
:1040A0008507D2F8A8C15CF807704FF0140CC1F86E
:1040B000D0760CEB8505D2F8A8C107275CF805C0BF
:1040C000B0FBF7F5C1F8D4C607FB1505F70F81F86B
:1040D000A076C6F3407081F8A106C6F38A46C1F8FF
:1040E000A466E70F81F8A876C4F3056081F8A906F5
:1040F000C4F3405681F8AA66C4F3005781F8AB7642
:10410000C4F3034081F8AC06240CA1F8AE460024A9
:1041100003EB840000F5D66000F5C040641C042C5D
:10412000866906704FEA162747704FEA164C80F8EA
:1041300002C04FEA166880F80380E9DB052D0AD833
:10414000C5EBC50091F8B02600EB452409EBC4008F
:1041500080F8342005E0062D03D191F8B00682F8EE
:10416000820103F5C042144615460020C1F88C06B2
:10417000D2F8982603F5C043D4F89C46521CC5F8E3
:10418000982644F10004C3F89C4681F88806BDE8EF
:10419000F083000000000020974900EB80032DE928
:1041A000F047D1F800A000EB40050AF5C0426D00D1
:1041B0000AEB0313D2F8A84103F5C04154F8256077
:1041C0000424C1F8C06604EB8504D2F8A8713C59F8
:1041D0000827C1F8C44607EB8507D2F8A8C15CF8E8
:1041E00007C00C27C1F8C8C607EB8507D2F8A8C1DD
:1041F0005CF807C01027C1F8CCC607EB8507D2F8DA
:10420000A8C15CF807704FF0140CC1F8D0760CEB25
:104210008505D2F8A8C107275CF80550B0FBF7FC6C
:10422000C1F8D456C6F38A4507FB1C094FEAD67C71
:1042300081F8A0C6C6F3407781F8A176C1F8A456EC
:10424000E60F81F8A866C4F3056781F8A976C4F380
:10425000405581F8AA56C4F30056C4F3034781F8C9
:10426000AB66240C81F8AC765FF00005A1F8AE4691
:1042700003EB850404F5D66404F5C0446D1C042DDD
:10428000A66926704FEA162767704FEA164C84F825
:1042900002C04FEA166884F80380E9DBB9F1050F24
:1042A0004FF0010473D891F8B066C0EBC00C91F8E0
:1042B000B3260CEB402C91F8B15691F8B27602EB94
:1042C00006660AEBCC022D0405EB0725354492ED7A
:1042D000462B00EE105AC9EBC9069FED481BB8EEFD
:1042E000C00B06EB49250AEBC50020EE020B80EE61
:1042F000012B80ED242B91F8B46691F8B55692ED20
:10430000482B05EB06252DB201EE105A9FED3D0B13
:10431000B8EEC11B21EE021B81EE002B80ED262B97
:1043200091F8B66691F8B75692ED4C2B05EB062541
:104330002DB201EE105AB8EEC11B21EE021B81EE28
:10434000002B80ED2A2B91F8B82600EE102AB8EE4B
:10435000400B80ED2C0B91F8B92680F8342091F8B1
:10436000BA2680F8352091F8BB2680F8362091F8DF
:10437000BC2680F8372091F8BD2680F8382080F8D8
:10438000414002F0010280F84B201DE0FFE7B9F147
:10439000060F19D191F8B00682F8920191F8B10692
:1043A00082F8930191F8B20682F8940191F8B90667
:1043B00082F8820191F8BC0682F8830191F8BD066B
:1043C00082F8840182F88D4103F5C0400446054619
:1043D0000022C1F88C26D0F8980603F5C043D4F823
:1043E0009C46401CC5F8980644F10004C3F89C465E
:1043F00081F88826BDE8F087000000200000C0FF9B
:10440000FFFFDF4100000000C0FFDF4070B5194C26
:1044100001260025D4F89800E840C00706D0E8B28D
:10442000FFF7BAFE06FA05F0C4F898006D1C072DD8
:10443000F0DB0725D4F89800E840C00706D0E8B2C2
:10444000FFF7FCFD06FA05F0C4F898006D1C0E2D70
:10445000F0DB0E25D4F89800E840C00706D0E8B29B
:10446000FFF732FD06FA05F0C4F898006D1C152D13
:10447000F0DB70BD00A0004010B501F01FF8FFF7A1
:104480009FFB134801680020024600EB420303EB48
:10449000C202401C01EBC20202F5C0420B28D2F856
:1044A000C43203F10103C2F8C432EDDB5FF0000057
:1044B00000EB8002401C01EB021202F5C0421528FD
:1044C000D2F88C3603F10103C2F88C36F0DB10BD54
:1044D000000000202DE9F0435E4E012230680146C5
:1044E000583000F5C04090F8C00201287DD002EBA2
:1044F000420000EBC200002301EBC0041D4600BFD8
:10450000C5EBC50C0CEB452CE71801EBCC0C07F503
:10451000C0475B1C9CF833C06D1C9BB287F8EDC292
:10452000062DEDDB2344B14601F5C04103F5C04340
:1045300091F8815183F8ED525FF0000504EB85039B
:1045400003F5C0436D1C042D93F8EE7293F8ED62F1
:1045500093F8EFC293F8F08206EB072606EB0C46C1
:1045600006EB0866C3F80863E8DB02EB4203D1F808
:10457000A46104F5C0444FF6FF7505EA43034946BC
:104580004FF00C0CD4F80073042446F8237004EBAD
:104590008307D9F80040082504EBC00804F5C0449F
:1045A00008F5C04805EB8305D4F8A4411026D8F8D7
:1045B000048306EB830644F807800C680CEB830841
:1045C000142704EBC00C04F5C0440CF5C04C07EBF9
:1045D0008307D4F8A4410123DCF808C344F805C0DC
:1045E0000C681D4D04EBC00C00E031E004F5C04444
:1045F0000CF5C04C03FA02F2D4F8A441DCF80CC369
:1046000044F808C00C6804EBC00C04F5C0440CF579
:10461000C04CD4F8A441DCF810C344F806C00C68C0
:1046200004EBC00604F5C04406F5C046D4F8A44126
:10463000D6F81463E651D9F8001001EBC00000F57C
:10464000C04080F8C032D5F8D0001043C5F8D00083
:10465000BDE8F0830000002000A00040674B02226C
:104660002DE9F04318680146B03000F5C04090F8DD
:10467000C00201287DD002EB4200994600EBC20047
:10468000002401EBC003254603EB040CC5EBC50673
:1046900006EB4526641C01EBC606A4B20CF5C04C23
:1046A0001F1996F8308007F5C047641C8CF8ED821E
:1046B00096F832606D1CA4B287F8ED62062DE3DB3C
:1046C0001E1906F5C0460025641C86F8ED52A5B2F9
:1046D0001D4401F5C04105F5C04591F8806185F89C
:1046E000ED62002503EB850404F5C0446D1C042D28
:1046F00094F8EE7294F8ED6294F8EFC294F8F082B8
:1047000006EB072606EB0C4606EB0866C4F80863C2
:10471000E8DB03F5C043D1F8A44102EB420549466A
:1047200004264FF00C0CD3F800734FF6FF7303EA26
:104730004503082505EB830544F82370D9F80040AC
:1047400006EB8307102604EBC00804F5C04408F507
:10475000C04806EB8306D4F8A441D8F8048344F893
:10476000078014270C680CEB830807EB83070123F1
:1047700000E041E004EBC00C04F5C0440CF5C04C73
:1047800003FA02F2D4F8A441DCF808C344F805C0E7
:104790000C681B4D04EBC00C04F5C0440CF5C04C78
:1047A000D4F8A441DCF80CC344F808C00C6804EB4E
:1047B000C00C04F5C0440CF5C04CD4F8A441DCF89E
:1047C00010C344F806C00C6804EBC00604F5C044EE
:1047D00006F5C046D4F8A441D6F81463E651D9F8DA
:1047E000001001EBC00000F5C04080F8C032D5F8E1
:1047F000D0001043C5F8D000BDE8F08300000020D1
:1048000000A000406F4900222DE9F0470C6804F534
:10481000C040814690F8C00201287DD0002002EB04
:1048200042039FED691B8A46054603EBC20104EB78
:10483000C10300BFC5EBC50606EB4526B0EE410B34
:1048400004EBC6061F1896ED1A2B96ED4C3B07F5A8
:10485000C047401C82EE034B80B203EB000C0CF50A
:10486000C04C401C6D1C80B2062D24EE002BBDEE0A
:10487000C22B12EE108A4FEA282887F8ED8296EDB7
:104880001A2B96ED4C3B82EE034B24EE000BFDEE13
:10489000C00B10EE906A8CF8ED62CBDB1C1899F817
:1048A000915104F5C044504684F8ED525FF0000584
:1048B00003EB850404F5C0446D1C042D94F8EE72DE
:1048C00094F8ED6294F8EFC294F8F08206EB0726B4
:1048D00006EB0C4606EB0866C4F80863E8DB03F554
:1048E000C043D9F8A44102EB42054FF00C0C042759
:1048F000D3F800634FF6FF7303EA4503082507EB7F
:10490000830744F823600468102605EB830504EB55
:10491000C10808F5C04800E052E004F5C044D8F8EA
:10492000048306EB8306D4F8A44144F807800468A6
:104930000CEB8308142704EBC10C04F5C0440CF500
:10494000C04C07EB8307D4F8A4410123DCF808C36B
:1049500003FA02F244F805C004681D4D04EBC10CD3
:1049600004F5C0440CF5C04CD4F8A441DCF80CC3E9
:1049700044F808C0046804EBC10C04F5C0440CF50D
:10498000C04CD4F8A441DCF810C344F806C0046855
:1049900004EBC10604F5C04406F5C046D4F8A441B2
:1049A000D6F81463E651DAF8000000EBC10000F518
:1049B000C04080F8C032D5F8D0001043C5F8D00010
:1049C000BDE8F0870000002000000000C0FFDF40CD
:1049D00000A000401749F0B50026174DD1F800306F
:1049E00002273046D5F8D810C140C9071DD000EBCA
:1049F000400101EBC00103EBC10101F5C04292F897
:104A0000C042012C11D19446144682F8C0729646D9
:104A1000C2F8C462DCF8D012D4F8D442491CCEF8F3
:104A2000D01244F10004C2F8D442401C0B28D9DB58
:104A3000F0BD00000000002000A00040514803220B
:104A40002DE9F04301680B4601F5847101F5C04181
:104A500091F8C01201297CD002EB4201814601EBA2
:104A6000C200002403EBC00505EB840101F5C04141
:104A7000641C042C91F8EE7291F8ED6291F8EFC28B
:104A800091F8F08206EB072606EB0C4606EB08666B
:104A9000C1F80863E8DB03F5C0434FF6FF7802EB8B
:104AA00042074FF0040C05F5C0454946D3F8A46110
:104AB00008EA47030824D5F800530C2707EB8308BE
:104AC00046F8235004EB8305D9F800400CEB83062D
:104AD00004EBC00C04F5C0440CF5C04C1027D4F80E
:104AE000A441DCF804C344F806C00C6807EB830655
:104AF000142704EBC00C04F5C0440CF5C04C07EBC4
:104B00008307D4F8A4410123DCF808C303FA02F2B6
:104B100044F805C00C681C4D04EBC00C04F5C044FF
:104B20000CF5C04CD4F8A441DCF80CC344F808C020
:104B30000C6804EBC00C04F5C0440CF5C04CD4F870
:104B4000A441DCF810C344F806C00C6804EBC006AE
:104B500000E015E004F5C04406F5C046D4F8A441D1
:104B6000D6F81463E651D9F8001001EBC00000F547
:104B7000C04080F8C032D5F8D0001043C5F8D0004E
:104B8000BDE8F0830000002000A0004051480A2248
:104B90002DE9F04301680B4601F55C7101F5C04158
:104BA00091F8C01201297CD002EB4201814601EB51
:104BB000C200002403EBC00505EB840101F5C041F0
:104BC000641C042C91F8EE7291F8ED6291F8EFC23A
:104BD00091F8F08206EB072606EB0C4606EB08661A
:104BE000C1F80863E8DB03F5C0434FF6FF7802EB3A
:104BF00042074FF0040C05F5C0454946D3F8A461BF
:104C000008EA47030824D5F800530C2707EB83086C
:104C100046F8235004EB8305D9F800400CEB8306DB
:104C200004EBC00C04F5C0440CF5C04C1027D4F8BC
:104C3000A441DCF804C344F806C00C6807EB830603
:104C4000142704EBC00C04F5C0440CF5C04C07EB72
:104C50008307D4F8A4410123DCF808C303FA02F265
:104C600044F805C00C681C4D04EBC00C04F5C044AE
:104C70000CF5C04CD4F8A441DCF80CC344F808C0CF
:104C80000C6804EBC00C04F5C0440CF5C04CD4F81F
:104C9000A441DCF810C344F806C00C6804EBC0065D
:104CA00000E015E004F5C04406F5C046D4F8A44180
:104CB000D6F81463E651D9F8001001EBC00000F5F6
:104CC000C04080F8C032D5F8D0001043C5F8D000FD
:104CD000BDE8F0830000002000A0004051480422FD
:104CE0002DE9F04301680B46A1F5F55101F50041AE
:104CF00091F8C01201297CD002EB4201814601EB00
:104D0000C200002403EBC00505EB840101F5C0419E
:104D1000641C042C91F8EE7291F8ED6291F8EFC2E8
:104D200091F8F08206EB072606EB0C4606EB0866C8
:104D3000C1F80863E8DB03F5C0434FF6FF7802EBE8
:104D400042074FF0040C05F5C0454946D3F8A4616D
:104D500008EA47030824D5F800530C2707EB83081B
:104D600046F8235004EB8305D9F800400CEB83068A
:104D700004EBC00C04F5C0440CF5C04C1027D4F86B
:104D8000A441DCF804C344F806C00C6807EB8306B2
:104D9000142704EBC00C04F5C0440CF5C04C07EB21
:104DA0008307D4F8A4410123DCF808C303FA02F214
:104DB00044F805C00C681C4D04EBC00C04F5C0445D
:104DC0000CF5C04CD4F8A441DCF80CC344F808C07E
:104DD0000C6804EBC00C04F5C0440CF5C04CD4F8CE
:104DE000A441DCF810C344F806C00C6804EBC0060C
:104DF00000E015E004F5C04406F5C046D4F8A4412F
:104E0000D6F81463E651D9F8001001EBC00000F5A4
:104E1000C04080F8C032D5F8D0001043C5F8D000AB
:104E2000BDE8F0830000002000A0004051480522AA
:104E30002DE9F04301680B4601F5DC7101F5C04135
:104E400091F8C01201297CD002EB4201814601EBAE
:104E5000C200002403EBC00505EB840101F5C0414D
:104E6000641C042C91F8EE7291F8ED6291F8EFC297
:104E700091F8F08206EB072606EB0C4606EB086677
:104E8000C1F80863E8DB03F5C0434FF6FF7802EB97
:104E900042074FF0040C05F5C0454946D3F8A4611C
:104EA00008EA47030824D5F800530C2707EB8308CA
:104EB00046F8235004EB8305D9F800400CEB830639
:104EC00004EBC00C04F5C0440CF5C04C1027D4F81A
:104ED000A441DCF804C344F806C00C6807EB830661
:104EE000142704EBC00C04F5C0440CF5C04C07EBD0
:104EF0008307D4F8A4410123DCF808C303FA02F2C3
:104F000044F805C00C681C4D04EBC00C04F5C0440B
:104F10000CF5C04CD4F8A441DCF80CC344F808C02C
:104F20000C6804EBC00C04F5C0440CF5C04CD4F87C
:104F3000A441DCF810C344F806C00C6804EBC006BA
:104F400000E015E004F5C04406F5C046D4F8A441DD
:104F5000D6F81463E651D9F8001001EBC00000F553
:104F6000C04080F8C032D5F8D0001043C5F8D0005A
:104F7000BDE8F0830000002000A000405148062258
:104F80002DE9F04301680B4601F5047101F5C041BC
:104F900091F8C01201297CD002EB4201814601EB5D
:104FA000C200002403EBC00505EB840101F5C041FC
:104FB000641C042C91F8EE7291F8ED6291F8EFC246
:104FC00091F8F08206EB072606EB0C4606EB086626
:104FD000C1F80863E8DB03F5C0434FF6FF7802EB46
:104FE00042074FF0040C05F5C0454946D3F8A461CB
:104FF00008EA47030824D5F800530C2707EB830879
:1050000046F8235004EB8305D9F800400CEB8306E7
:1050100004EBC00C04F5C0440CF5C04C1027D4F8C8
:10502000A441DCF804C344F806C00C6807EB83060F
:10503000142704EBC00C04F5C0440CF5C04C07EB7E
:105040008307D4F8A4410123DCF808C303FA02F271
:1050500044F805C00C681C4D04EBC00C04F5C044BA
:105060000CF5C04CD4F8A441DCF80CC344F808C0DB
:105070000C6804EBC00C04F5C0440CF5C04CD4F82B
:10508000A441DCF810C344F806C00C6804EBC00669
:1050900000E015E004F5C04406F5C046D4F8A4418C
:1050A000D6F81463E651D9F8001001EBC00000F502
:1050B000C04080F8C032D5F8D0001043C5F8D00009
:1050C000BDE8F0830000002000A000405148072206
:1050D0002DE9F04301680B4601F51A7101F5C04155
:1050E00091F8C01201297CD002EB4201814601EB0C
:1050F000C200002403EBC00505EB840101F5C041AB
:10510000641C042C91F8EE7291F8ED6291F8EFC2F4
:1051100091F8F08206EB072606EB0C4606EB0866D4
:10512000C1F80863E8DB03F5C0434FF6FF7802EBF4
:1051300042074FF0040C05F5C0454946D3F8A46179
:1051400008EA47030824D5F800530C2707EB830827
:1051500046F8235004EB8305D9F800400CEB830696
:1051600004EBC00C04F5C0440CF5C04C1027D4F877
:10517000A441DCF804C344F806C00C6807EB8306BE
:10518000142704EBC00C04F5C0440CF5C04C07EB2D
:105190008307D4F8A4410123DCF808C303FA02F220
:1051A00044F805C00C681C4D04EBC00C04F5C04469
:1051B0000CF5C04CD4F8A441DCF80CC344F808C08A
:1051C0000C6804EBC00C04F5C0440CF5C04CD4F8DA
:1051D000A441DCF810C344F806C00C6804EBC00618
:1051E00000E015E004F5C04406F5C046D4F8A4413B
:1051F000D6F81463E651D9F8001001EBC00000F5B1
:10520000C04080F8C032D5F8D0001043C5F8D000B7
:10521000BDE8F0830000002000A0004051480822B3
:105220002DE9F04301680B46A1F5EA5101F5004173
:1052300091F8C01201297CD002EB4201814601EBBA
:10524000C200002403EBC00505EB840101F5C04159
:10525000641C042C91F8EE7291F8ED6291F8EFC2A3
:1052600091F8F08206EB072606EB0C4606EB086683
:10527000C1F80863E8DB03F5C0434FF6FF7802EBA3
:1052800042074FF0040C05F5C0454946D3F8A46128
:1052900008EA47030824D5F800530C2707EB8308D6
:1052A00046F8235004EB8305D9F800400CEB830645
:1052B00004EBC00C04F5C0440CF5C04C1027D4F826
:1052C000A441DCF804C344F806C00C6807EB83066D
:1052D000142704EBC00C04F5C0440CF5C04C07EBDC
:1052E0008307D4F8A4410123DCF808C303FA02F2CF
:1052F00044F805C00C681C4D04EBC00C04F5C04418
:105300000CF5C04CD4F8A441DCF80CC344F808C038
:105310000C6804EBC00C04F5C0440CF5C04CD4F888
:10532000A441DCF810C344F806C00C6804EBC006C6
:1053300000E015E004F5C04406F5C046D4F8A441E9
:10534000D6F81463E651D9F8001001EBC00000F55F
:10535000C04080F8C032D5F8D0001043C5F8D00066
:10536000BDE8F0830000002000A000405148092261
:105370002DE9F04301680B4601F5467101F5C04186
:1053800091F8C01201297CD002EB4201814601EB69
:10539000C200002403EBC00505EB840101F5C04108
:1053A000641C042C91F8EE7291F8ED6291F8EFC252
:1053B00091F8F08206EB072606EB0C4606EB086632
:1053C000C1F80863E8DB03F5C0434FF6FF7802EB52
:1053D00042074FF0040C05F5C0454946D3F8A461D7
:1053E00008EA47030824D5F800530C2707EB830885
:1053F00046F8235004EB8305D9F800400CEB8306F4
:1054000004EBC00C04F5C0440CF5C04C1027D4F8D4
:10541000A441DCF804C344F806C00C6807EB83061B
:10542000142704EBC00C04F5C0440CF5C04C07EB8A
:105430008307D4F8A4410123DCF808C303FA02F27D
:1054400044F805C00C681C4D04EBC00C04F5C044C6
:105450000CF5C04CD4F8A441DCF80CC344F808C0E7
:105460000C6804EBC00C04F5C0440CF5C04CD4F837
:10547000A441DCF810C344F806C00C6804EBC00675
:1054800000E015E004F5C04406F5C046D4F8A44198
:10549000D6F81463E651D9F8001001EBC00000F50E
:1054A000C04080F8C032D5F8D0001043C5F8D00015
:1054B000BDE8F0830000002000A0004070B51F4C44
:1054C0000B2500222068014600F5C040B0F8BC3131
:1054D0005B1C9BB2B3FBF5F605FB1633A0F8BC31A1
:1054E00003EB430606EBC30301EBC30303F5C04321
:1054F00093F8D832012B03D0521C0B2AE6DB70BD87
:10550000B0F8BC0100EB400202EBC00001EBC000B0
:1055100000F5C040D0F8DC028047206846F2BC119C
:105520000022095A01EB410303EBC10100EBC1006A
:1055300000F5C04080F8D82270BD000000000020B7
:105540000D484FF0000CF0B5006854270B4A4FF49B
:10555000AE7600F5CC70094900F5C040084B5432D6
:10556000084C4FF45575A0F800C047808680C58070
:10557000083080E81E00F0BD0000002000AC0040B4
:105580005CAD004054AF004082480023F0B5016894
:105590000124814A4FF4681501F5C0400A26072707
:1055A00080F8D832C0F8DC2201F54C7280F8E03285
:1055B00002F5C04280F8E13280F8E232C0F8E4320D
:1055C00080F8E83280F8E93280F8EA4280F8EB426D
:1055D00080F8EC62C0E9C03570481370506010204C
:1055E000137253729372D060800413745374947462
:1055F000D47417754FF45C17C2E90A0701F562709D
:10560000674A00F5C0404FF0707703704260F022A7
:10561000037243728372C2604FF440120374437486
:105620008474C474067501F5787606F5C046C0E941
:105630000A755C48A0253370706000203372737265
:10564000B372F5603374AB047074B474F474307571
:1056500001F5876000F5C040574DC6E90A320023C6
:105660000370514B436000230372437283724FF403
:10567000D073C3600023037443748474C4740375CB
:105680004FF0D063C0E90A3201F5926000F5C040E6
:1056900000230370454B43600023037243728372FF
:1056A00040F2A113C3600023037443748474C47470
:1056B00003753F4BC0E90A3201F59D6000F5C0401B
:1056C000002303703B4B43600023037243728372D9
:1056D0004FF4D173C3600023037443748474C4749F
:1056E00003754FF0D163C0E90A3201F5A86303F5F1
:1056F000C043002018705D6040F2A3151872587204
:105700009872DD60187458749C74AD04DC7418755C
:10571000C3E90A5201F5B363284D03F5C04318707D
:105720005D604FF4D275187258729872DD60AD04E6
:10573000187458749C74DC741875C3E90A5201F526
:10574000BE631F4D03F5C04301F5C96101F5C041BA
:1057500018705D6040F2A515187258729872DD607D
:10576000AD04187458749C74DC741875C3E90A523B
:10577000144B08704B604FF4D373087248728872F0
:10578000CB60087448748C74CC7408759804C1E9B3
:105790000A02F0BD00000020250E0000F50A0000FE
:1057A0007D0C00005D100000FD1200004D14000093
:1057B000000084069D150000ED1600003D18000055
:1057C0008D190000AD1100002DE9F0417C4D002144
:1057D00001240B462A68117551759175D176917621
:1057E000D175117651761177C3EBC30000EB4320DE
:1057F00002EBC00090F83E60012E11D180F8371006
:1058000080F8351080F8461080F8481080F8431072
:1058100080F8441080F8451080F8471080F84B104D
:1058200090F8376080F8491080F84A100EB180F87F
:10583000494090F835600EB180F8494090F84660D4
:10584000012E01D180F84A4090F84860012E01D124
:1058500080F84A4090F84360012E01D180F84A4018
:1058600090F84460012E01D180F84A4090F84560DC
:10587000012E01D180F84A4090F84760012E01D1F5
:1058800080F84A4090F84B60012E00D1D47690F811
:105890004960012E00D1947690F84A00012800D189
:1058A000D4755B1C062B9FDB2868024600F5C040C0
:1058B00090F88A31012B05D090F8831149B180F816
:1058C0008F410AE080F8831180F88F1180F89011E1
:1058D00009E090F88F11012900D1947690F8900199
:1058E000012800D1D47500F01BF9286846F2B011E8
:1058F000095C012900D10476C17D012912D0017E05
:1059000001290FD0417E01290CD0017F012909D046
:1059100001F0A2F82868827E012A06D0817C012944
:1059200003D003E00475C474F4E74475C17E012913
:1059300000D18475C67C817C037D447D41EA4601AB
:10594000C57D067E41EA8301477E41EAC40141EA02
:10595000051190F81CC041EA4611038A41EA8711FB
:1059600041EAC21141EA0C21C1810B4303820022AA
:105970001146C2EBC10303EB4121521C00EBC101F4
:10598000062A91F8444091F8433091F8455091F837
:10599000466043EA440391F8477091F848C043EAEF
:1059A000850343EAC6038C8F43EA071343EA4C138B
:1059B0004B8744EA03048C87DADBBDE8F081000002
:1059C000000000205548012210B50021D0F8003019
:1059D000C1EBC10000EB412003EBC00090ED2A0BAE
:1059E00090ED3A1BB4EEC10BF1EE10FA06D390ED38
:1059F0003C1BB4EEC10BF1EE10FA01DD80F846203D
:105A000090ED220BB5EEC00BF1EE10FA01DD012492
:105A100000E00024B5EEC00B01EE104AF1EE10FAE2
:105A2000B8EE413B01D2012400E0002402EE104A0E
:105A300090ED4C1BB8EE422B10EE023BB4EEC13B96
:105A4000F1EE10FA1BDDB5EEC00BF1EE10FA01DD40
:105A5000012400E00024B5EEC00B02EE104AF1EE86
:105A600010FAB8EE422B01D2012400E0002400EE2F
:105A7000104AB8EE400B11EE002B80ED222B90ED7A
:105A80001C0B90ED2E1BB4EEC10BF1EE10FA06D3F9
:105A900090ED301BB4EEC10BF1EE10FA01DD80F891
:105AA000432090ED1E0B90ED321BB4EEC10BF1EED6
:105AB00010FA06D390ED341BB4EEC10BF1EE10FAE0
:105AC00001DD80F8442090ED200B90ED361BB4EE04
:105AD000C10BF1EE10FA06D390ED381BB4EEC10BFA
:105AE000F1EE10FA01DD80F8452000F5406490EDFC
:105AF000421B94EDE40BB4EEC10BF1EE10FA06D3A9
:105B000090ED441BB4EEC10BF1EE10FA01DD80F80C
:105B10004720491C0629FFF65BAF10BD000000209E
:105B200070B50D4C0025206890F82A00012810D18E
:105B300002F046FA68B120684FF4FA62C16A491C63
:105B4000C162914203D9C2620121017770BD05771C
:105B500070BD2068C56270BD000000201349C307F6
:105B60004FF00102096801D081F84020830702D577
:105B700041F278035A54430702D542F2B0035A5413
:105B8000030702D543F2E8035A54C30602D544F290
:105B900020135A54830602D545F258135A5440062E
:105BA00003D501F5C04181F88C2170470000002029
:105BB00030B4374C00204FEA000322689074D07450
:105BC000107550759075D075107650769076D076A9
:105BD000D0621077D0811082C3EBC30101EB432167
:105BE0005B1C02EBC101062B81F8490081F84A00D9
:105BF00081F8460081F8480081F8430081F84400AC
:105C000081F8450081F8470081F8350081F83600B9
:105C100081F8370081F8380048878887DCDB216805
:105C200000230A4601F5C27101F5C041C87208732C
:105C300001F8010C087048808880114603EB83024C
:105C40005B1C01EB021202F5C042152B82F8900694
:105C5000C2F88C06F2DBD4F80030002101EB4102DF
:105C600002EBC102491C03EBC20202F5C0420B2940
:105C700082F8C802C2F8C402F0DB216801F5D871CD
:105C800001F5C04108704860886030BCFFF79CBDDA
:105C9000000000202DE9F04F33482021066801253F
:105CA00040F2DF192C4646F001062B460A460660F4
:105CB00003274FF0A90AAC464FEA0506D0F800804A
:105CC0005FEA4878FAD51B06DFF89C8043EA044374
:105CD000DFF898B034060E0144EA074443EA452150
:105CE000214D44EA4C23DFF880C046EA02371E4AC1
:105CF0000CF1280C383248241835CCF8007041EAF1
:105D0000090143EA0A0308F130084FF488664FF0AE
:105D1000400C2F1DC8F8001007F1040813602C6018
:105D20003E60C8F800C0DBF8002042F03702CBF834
:105D30000020016841F08071016001688901FCD593
:105D4000016841F08061016001680901FCD50648E5
:105D50001030016841F0030101600168C1F3C20124
:105D60000329FAD1BDE8F08F004402580020005208
:105D70000349002209680A600A688242FCD370471E
:105D80000000002070B5394C394D206820F001002A
:105D90002060686920F002006861206820F480407B
:105DA000206002F0BDF8FFF70FFD00F065F8314EFE
:105DB00030684079052808D001281FD0042824D055
:105DC00002282DD0032832D037E0206840F48040EC
:105DD000206001F019FB06F055F902F0FBFD306878
:105DE00000214172007D012827D10024204600F0C7
:105DF00045FD641CE4B2062CF8D31EE0206840F098
:105E00000100206000F072FA17E0206840F0010005
:105E10002060686940F00200686100F04BFD0CE012
:105E2000686940F00200686100F0E2F905E0686925
:105E300040F00200686100F009FCFFF7C3FDFFF7C6
:105E4000C3FC01F089F93068012100F5C04080F8F9
:105E5000D81200F009FE00F039FE02F089F8FEF7D2
:105E60000BFBBDE87040FDF7BBBD000014040258F9
:105E700000100258000000202DE9F041414D01249E
:105E80002DED028B2868017D012937D0417D012944
:105E900034D0002180F8071000F07AF801F068FA99
:105EA00029680523C87901282AD00A7A2846012AB8
:105EB00029D04A7A04259FED348B012A26D08A7A8C
:105EC0000226012A3ED0CA7A0327012A58D00A792D
:105ED000052A16D0012A17D0042A18D0022A32D057
:105EE000032A07D149790446032901D002F072FD43
:105EF00020684771BDEC028BBDE8F081C471CBE72F
:105F00000B714B71F6E70C714C71F3E70D710446A0
:105F10004979042913D002F05DFD2268002108466A
:105F2000C1EBC00303EB4020491C02EBC000062973
:105F300080ED1C8B80ED1E8B80ED208BEFDB2068CD
:105F40004571D7E70E7104464979022915D002F050
:105F500041FD226800200146C0EBC10303EB412153
:105F6000401C02EBC101062891ED240B81ED1E8B34
:105F700081ED208B81ED1C0BEDDB20684671B9E7CC
:105F80000F71AFE7000000200000000000000000DB
:105F90002DE9F041954C002602220125206800F5EC
:105FA000C041867191F88A31012B05D181F88D515C
:105FB00081F8822181F88E515FF00001C1EBC103AD
:105FC00003EB412300EBC30393F83E70012F07D18D
:105FD00083F8415083F8342083F8425083F83150DD
:105FE000491C0629EADB2068012300F5C04191F82D
:105FF0008E71012F00D0002391F8821101291BD04E
:10600000D1B10021C1EBC10707EB412C00EBCC075C
:1060100097F842C0BCF1010F00D0002397F834700C
:10602000012F0BD057B1491CC9B20629EAD34FF052
:1060300003072BB1857106E00023E2E70023F2E7B6
:10604000817901292DD10021C1EBC10303EB41234B
:1060500000EBC30393F83EC0BCF1010F01D183F8FC
:106060004C50491C0629EFDBD4F800000123002125
:10607000C1EBC10C0CEB412C00EBCC0C9CF84CC0E0
:10608000BCF1000F00D10023491C0629F0DB43B10D
:106090004179012901D0052901D1827104E087717C
:1060A0000CE08079022802D101F08AFF20B120683B
:1060B0008079032802D02CE02068F0E721680020D6
:1060C000C0EBC00202EB402201EBC20292F83E306C
:1060D000012B01D182F84B60401C0628F0DB2268BE
:1060E00001210020C0EBC00303EB402702EBC703F4
:1060F00093F84B70012F04D003F580531B7E012BC6
:1061000000D10021401C0628ECDB11B10420907165
:1061100003E020688079042801D101F05BFF20684A
:1061200000F5C04191F88E21012A0DD191F882111C
:10613000022905D0032903D0012905D021B107E0A8
:10614000817F21F0400102E0817F41F040018177B1
:106150005FF00001C1EBC10202EB412300EBC3027F
:1061600092F84C30012B19D192F84230012B15D105
:1061700092F83430022B01D0032B02D192F84B401D
:106180003CB1012B0AD04BB192F84B20012A05D02B
:1061900009E0827F05FA01F39A4303E0827F05FA62
:1061A00001F31A438277491CC9B20629D2D3C17FB1
:1061B00019B9417F21F00101417790F8201019B9F8
:1061C000417F21F00201417790F8211019B9417FF8
:1061D00021F004014177817F467711B98179042943
:1061E00002D00572BDE8F0810672FBE700000020D6
:1061F00070B5384D5FF00004C4EBC40000EB4420E0
:10620000296801EBC00090F83400032802D0204632
:1062100000F020FB641CE4B2062CEDD3286800F5E6
:10622000C04090F88201032801D000F005FB2A4805
:10623000002290F8121A012902D005291AD021E073
:10624000B0F8481B47F65836B0F8084D4B1EA0F87A
:106250001A1A00F60C306343C0E910321F4830446C
:1062600001F016F91E4801F013F91D48903001F0B5
:106270000FF907E090F8101A022926D080F8112AA9
:1062800080F8122A00F042FA02F0E0FE02F054F820
:106290002A6800209FED131B0146C0EBC10303EBEE
:1062A0004121401C02EBC10101F5805301F540641E
:1062B00093ED040B94EDDA2B062830EE020B20EE62
:1062C000010B81ED220BE7DB70BD012180F8121A72
:1062D000D8E7000000000020007000240000002427
:1062E000E87B0024CDCCCCCCCCCCF43F10B501F075
:1062F0008BF805F0C7FE02F06DFB1B4B00219FEDF4
:106300001B0B186841720A46C1EBC20404EB42221F
:10631000491C00EBC202062982ED220BF3DB186850
:10632000807948B101280BD002280DD003281AD15A
:10633000BDE8104000F0C0B8BDE8104000F034B92E
:10634000BDE8104000F016B80024204602F0FAFC28
:10635000204600F093FA641CE4B2062CF5D3BDE8A5
:10636000104001F043BE10BD0000002000000000FE
:106370000000000070B54F4C5FF00005C5EBC50094
:1063800000EB4520216801EBC00101F58050027E41
:106390005AB991F84C2042B991ED240B90ED181B9D
:1063A000284630EE010B02F0A1FC6D1CEDB2062D6B
:1063B000E4D300252168C5EBC50000EB452001EBC7
:1063C000C00041F21801095C012905D190F84C0088
:1063D00010B9284600F03EFA6D1CEDB2062DE9D347
:1063E00000F0C6F902F032FE01F066FF21680020DD
:1063F000431CC0EBC00202EB402001EBC002D8B24C
:1064000002F5406302F5805593EDDA0B95ED0E1B16
:10641000062830EE010B82ED220BE9D3D4F80030D0
:1064200001250022C2EBC20000EB422003EBC000BA
:1064300000F580510E7E012E21D191ED0C0BB5EEB1
:10644000C00BF1EE10FA0AD290ED241B91ED162B41
:10645000B4EEC21BF1EE10FA01D280F84C50B5EE4A
:10646000C00BF1EE10FA0ADD90ED240B91ED161B36
:10647000B4EEC10BF1EE10FA01DD80F84C50521C65
:10648000062ACFDB5FF000052168C5EBC50000EBF5
:10649000452001EBC00090F84C00012805D12846AA
:1064A00002F050FC284600F0E9F96D1CEDB2062D13
:1064B000EAD370BD0000002070B53A4D5FF00004D3
:1064C0002DED028B9FED358BC4EBC400296800EBEA
:1064D000442001EBC00041F21801095C41B990F879
:1064E0004B00012804D1B0EE480B204602F0FEFB21
:1064F000641CE4B2062CE7D35FF000042868C4EB08
:10650000C40101EB442100EBC10000F58050007E86
:10651000012802D1204600F09DF9641CE4B2062C4B
:10652000ECD300F025F902F091FD01F0C5FED5F89D
:1065300000200020431CC0EBC00101EB402002EB17
:10654000C001D8B201F5406301F5805493EDDA1B28
:1065500094ED0E0B062831EE000B81ED220BE9D3F2
:106560005FF000042968C4EBC40000EB442001EB99
:10657000C00090F84B1049B990F83400032805D1B9
:10658000204602F0DFFB204600F078F9641CE4B2FC
:10659000062CE7D3BDEC028B70BD000000000000AC
:1065A00000000000000000202DE9F041264D0027EA
:1065B0000126286800F5C04090F8821180F881110A
:1065C00090F88D219AB1012A11D1012902D0022916
:1065D00008D00CE080F88E71022180F8811180F8DB
:1065E000306304E090F88E1109B980F888630024C4
:1065F0002968C4EBC40000EB442001EBC00090F814
:10660000342080F8332090F84120BAB1012A15D106
:1066100090F83420012A02D0022A06D00EE080F839
:106620004270204600F02AF908E090F842202AB98A
:1066300001F5C04180F8306081F88863641CE4B2E1
:10664000062CD5D3BDE8F0810000002070B52B4D9D
:106650005FF00004C4EBC40000EB4420296801EBA8
:10666000C00090F83400032802D0204600F0F2F871
:10667000641CE4B2062CEDD3286800F5C04090F805
:106680008201032801D000F0D7F81D48D0F8501B34
:10669000D0F84C2B491CC0F8501B914203D3042165
:1066A00080F8111A70BD00F007FF00F081F802F0C9
:1066B000CDFC01F041FE01F0A5FC2A6800219FED10
:1066C000111B0846C1EBC00303EB4020491C02EB41
:1066D000C00000F5805300F5406493ED040B94ED89
:1066E000DA3B90ED4E2B062930EE030B30EE020B19
:1066F00020EE010B80ED220BE3DB70BD00000020DB
:1067000000700024CDCCCCCCCCCCF43F154A002179
:1067100010B59FED150B13680846C1EBC00404EBE0
:106720004020491C03EBC000062990ED241B00F516
:10673000406080EDD41B80EDD60B80EDD80BEBDBF9
:10674000126800200146C0EBC10303EB4121401C4D
:1067500002EBC101062881ED1E0B81ED200BF1DB60
:1067600010BD00000000002000000000000000003C
:106770000E4800219FED0B0B02680846C1EBC003D9
:1067800003EB4020491C02EBC000062990ED241BBE
:1067900000F5406080EDD41B80EDD60B80EDD80B6A
:1067A000EBDB70470000000000000000000000204C
:1067B00030B51F4C00201F4AD4F80050C0EBC00178
:1067C00001EB402102EBC00305EBC10103F5F843E7
:1067D00091ED240B01F54061401C81EDD40B93ED4C
:1067E000060B062881EDD60B93ED120B81EDD80B2D
:1067F000E4DBD4F800400020C0EBC00302EBC00192
:1068000003EB402301F5F04504EBC30395EDFA0BD0
:1068100001F5F84183ED1C0B91ED060B401C83ED57
:106820001E0B91ED120B062883ED200BE4DB30BD2F
:106830000000002000000024054803220121006818
:1068400000F5C04080F8812180F8301370470000C7
:10685000000000200849C0EBC00303EB40230322E3
:106860000120096801EBC30301F5C04183F833201F
:1068700081F8300370470000000000200A49C0EB97
:10688000C00303EB402002229FED080B096801239F
:1068900001EBC00001F5C04180F8332080ED220BF0
:1068A00081F8303370470000000000200000000035
:1068B0000000000070B500F0A7FD05F0E3FB254DDA
