:020000040810E2
:10000000600600101D0310082503100827031008C0
:10001000290310082B0310082D031008000000000E
:100020000000000000000000000000002F03100886
:1000300031031008000000003303100835031008D6
:100040003703100837031008370310083703100868
:100050003703100837031008370310083703100858
:100060003703100837031008370310083703100848
:100070003703100837031008370310083703100838
:100080003703100837031008370310083703100828
:100090003703100837031008370310083703100818
:1000A0003703100837031008370310083703100808
:1000B00037031008370310083703100837031008F8
:1000C00037031008370310083703100837031008E8
:1000D00037031008370310083703100837031008D8
:1000E000370310083703100800000000370310081A
:1000F00037031008370310083703100837031008B8
:1001000037031008370310083703100837031008A7
:100110003703100837031008370310083703100897
:100120003703100837031008370310083703100887
:100130003703100837031008370310083703100877
:10014000370310083703100800000000000000000B
:100150003703100837031008370310083703100857
:100160003703100837031008370310083703100847
:100170003703100837031008370310080000000089
:100180003703100837031008370310083703100827
:100190003703100837031008370310083703100817
:1001A0003703100837031008370310083703100807
:1001B00037031008370310083703100837031008F7
:1001C00037031008370310083703100837031008E7
:1001D00037031008370310083703100837031008D7
:1001E00037031008370310083703100837031008C7
:1001F00037031008370310083703100837031008B7
:1002000037031008370310083703100837031008A6
:100210003703100837031008370310083703100896
:1002200037031008370310083703100800000000D8
:100230003703100837031008370310083703100876
:100240003703100837031008370310083703100866
:100250003703100837031008370310083703100856
:100260003703100837031008370310083703100846
:100270003703100837031008370310083703100836
:100280003703100837031008370310080000000078
:10029000370310083703100800F002F800F02EF8BA
:1002A0000AA090E8000C82448344AAF10107DA45D1
:1002B00001D100F023F8AFF2090EBAE80F0013F0F5
:1002C000010F18BFFB1A43F0010318474C0100004F
:1002D0005C0100000023002400250026103A28BFFE
:1002E00078C1FBD8520728BF30C148BF0B607047A8
:1002F0001FB500F084F81FBD10B510BD00F031F837
:100300001146FFF7F5FF00F079F800F04FF803B45D
:10031000FFF7F2FF03BC00F057F8000009488047E0
:1003200009480047FEE7FEE7FEE7FEE7FEE7FEE7D7
:10033000FEE7FEE7FEE7FEE704480549054A064BEF
:1003400070470000D90310089902100860000010DF
:1003500060060010600200106002001070477047D5
:100360007047754600F02CF8AE46050069465346C6
:1003700020F00700854618B020B5FFF7DDFFBDE887
:1003800020404FF000064FF000074FF000084FF0FC
:10039000000BAC46ACE8C009ACE8C009ACE8C00949
:1003A000ACE8C00921F007018D46704710B504463E
:1003B000AFF300802046BDE81040FFF7A8BF000063
:1003C000004870470000001001491820ABBEFEE74E
:1003D00026000200704700004EF61050CEF20000DA
:1003E000816F41F470018167016841F01001016083
:1003F0004FF0016140F8081C70470000FEE7F1EE85
:10040000100A4FF6FF71C0F2C03120EA010040F03F
:100410004070E1EE100A7047280410080000001038
:0804200060060000D402100880
:040000050810029944
:00000001FF
